:100000000C942A000C9434000C9434000C943400AA
:100010000C9434000C9434000C9434000C94340090
:100020000C9434000C9434000C9434000C94340080
:100030000C9434000C9434000C9434000C94340070
:100040000C9434000C9434000C9434000C94340060
:100050000C94340011241FBECFE5D8E0DEBFCDBF25
:100060000E9420060C9451060C940000DF93CF935D
:10007000CDB7DEB7CF91DF910895DF93CF9300D056
:1000800000D0CDB7DEB789836A838981282F30E01D
:100090003C832B838B819C8181309105D1F02B8116
:1000A0003C81223031052CF48B819C81009761F0DA
:1000B0001EC02B813C812230310581F08B819C81D7
:1000C0008330910581F013C0EAE3F0E08A818083F8
:1000D0000EC0E7E3F0E08A81808309C0E4E3F0E04A
:1000E0008A81808304C0E1E3F0E08A8180830F90FD
:1000F0000F900F900F90CF91DF910895DF93CF93E2
:10010000CDB7DEB727970FB6F894DEBF0FBECDBFD1
:1001100089836A834B838B81813009F06FC0898129
:10012000282F30E03F832E838E819F81813091057F
:1001300049F12E813F81223031052CF48E819F813F
:10014000009761F0D2C02E813F812230310571F1DC
:100150008E819F8183309105E9F1C7C0AAE3B0E0A9
:10016000EAE3F0E08081482F8A81282F30E081E0A7
:1001700090E0022E02C0880F991F0A94E2F7842BA8
:100180008C93B3C0A7E3B0E0E7E3F0E08081482FB1
:100190008A81282F30E081E090E0022E02C0880F93
:1001A000991F0A94E2F7842B8C939FC0A4E3B0E0DC
:1001B000E4E3F0E08081482F8A81282F30E081E05D
:1001C00090E0022E02C0880F991F0A94E2F7842B58
:1001D0008C938BC0A1E3B0E0E1E3F0E08081482F95
:1001E0008A81282F30E081E090E0022E02C0880F43
:1001F000991F0A94E2F7842B8C9377C08B81882314
:1002000009F073C08981282F30E03D832C838C81D5
:100210009D818130910559F12C813D81223031053C
:100220002CF48C819D81009769F05FC02C813D8109
:100230002230310589F18C819D818330910509F44B
:1002400040C053C0AAE3B0E0EAE3F0E08081482F69
:100250008A81282F30E081E090E0022E02C0880FD2
:10026000991F0A94E2F7809584238C933EC0A7E3FC
:10027000B0E0E7E3F0E08081482F8A81282F30E06A
:1002800081E090E0022E02C0880F991F0A94E2F7E5
:10029000809584238C9329C0A4E3B0E0E4E3F0E0EC
:1002A0008081482F8A81282F30E081E090E0022E63
:1002B00002C0880F991F0A94E2F7809584238C93DB
:1002C00014C0A1E3B0E0E1E3F0E08081482F8A812F
:1002D000282F30E081E090E0022E02C0880F991FA5
:1002E0000A94E2F7809584238C9327960FB6F894AE
:1002F000DEBF0FBECDBFCF91DF910895DF93CF93C7
:1003000000D000D0CDB7DEB789836A838981282FDA
:1003100030E03C832B838B819C8181309105D1F02F
:100320002B813C81223031052CF48B819C810097FC
:1003300061F01EC02B813C812230310581F08B8120
:100340009C818330910581F013C0EBE3F0E08A815A
:1003500080830EC0E8E3F0E08A81808309C0E5E392
:10036000F0E08A81808304C0E2E3F0E08A81808348
:100370000F900F900F900F90CF91DF910895DF9322
:10038000CF93CDB7DEB727970FB6F894DEBF0FBE79
:10039000CDBF89836A834B838B81813009F06FC025
:1003A0008981282F30E03F832E838E819F81813089
:1003B000910549F12E813F81223031052CF48E8147
:1003C0009F81009761F0D2C02E813F81223031059C
:1003D00071F18E819F8183309105E9F1C7C0ABE354
:1003E000B0E0EBE3F0E08081482F8A81282F30E0F5
:1003F00081E090E0022E02C0880F991F0A94E2F774
:10040000842B8C93B3C0A8E3B0E0E8E3F0E08081F4
:10041000482F8A81282F30E081E090E0022E02C030
:10042000880F991F0A94E2F7842B8C939FC0A5E351
:10043000B0E0E5E3F0E08081482F8A81282F30E0AA
:1004400081E090E0022E02C0880F991F0A94E2F723
:10045000842B8C938BC0A2E3B0E0E2E3F0E08081D8
:10046000482F8A81282F30E081E090E0022E02C0E0
:10047000880F991F0A94E2F7842B8C9377C08B81A5
:10048000882309F073C08981282F30E03D832C83B5
:100490008C819D818130910559F12C813D812230E3
:1004A00031052CF48C819D81009769F05FC02C810F
:1004B0003D812230310589F18C819D818330910508
:1004C00009F440C053C0ABE3B0E0EBE3F0E080815F
:1004D000482F8A81282F30E081E090E0022E02C070
:1004E000880F991F0A94E2F7809584238C933EC06D
:1004F000A8E3B0E0E8E3F0E08081482F8A81282F6C
:1005000030E081E090E0022E02C0880F991F0A942B
:10051000E2F7809584238C9329C0A5E3B0E0E5E35E
:10052000F0E08081482F8A81282F30E081E090E040
:10053000022E02C0880F991F0A94E2F78095842347
:100540008C9314C0A2E3B0E0E2E3F0E08081482F96
:100550008A81282F30E081E090E0022E02C0880FCF
:10056000991F0A94E2F7809584238C9327960FB6FF
:10057000F894DEBF0FBECDBFCF91DF910895DF931A
:10058000CF9300D000D0CDB7DEB789836A8389814D
:10059000282F30E03C832B838B819C818130910517
:1005A00049F12B813C81223031052CF48B819C81D7
:1005B000009761F05AC02B813C812230310571F1E6
:1005C0008B819C8183309105E9F14FC0ABE3B0E0B2
:1005D000EBE3F0E08081482F8A81282F30E081E032
:1005E00090E0022E02C0880F991F0A94E2F7842738
:1005F0008C933BC0A8E3B0E0E8E3F0E08081482FB3
:100600008A81282F30E081E090E0022E02C0880F1E
:10061000991F0A94E2F784278C9327C0A5E3B0E0E2
:10062000E5E3F0E08081482F8A81282F30E081E0E7
:1006300090E0022E02C0880F991F0A94E2F78427E7
:100640008C9313C0A2E3B0E0E2E3F0E08081482F96
:100650008A81282F30E081E090E0022E02C0880FCE
:10066000991F0A94E2F784278C930F900F900F90B4
:100670000F90CF91DF910895DF93CF9300D000D0FA
:100680000F92CDB7DEB78A836B838A81282F30E043
:100690003D832C834C815D814130510541F18C813A
:1006A0009D818230910534F42C813D8121153105E5
:1006B00061F052C04C815D814230510551F18C8115
:1006C0009D8183309105B9F147C0E9E3F0E0808175
:1006D000282F30E08B81882F90E0A90102C055952A
:1006E00047958A95E2F7CA018170898335C0E6E3B0
:1006F000F0E08081282F30E08B81882F90E0A901E5
:1007000002C0559547958A95E2F7CA0181708983A1
:1007100023C0E3E3F0E08081282F30E08B81882F35
:1007200090E0A90102C0559547958A95E2F7CA0164
:100730008170898311C0E0E3F0E08081282F30E0F0
:100740008B81882F90E0A90102C0559547958A9525
:10075000E2F7CA018170898389810F900F900F9011
:100760000F900F90CF91DF910895DF93CF9300D03A
:1007700000D0CDB7DEB78A838A81282F30E03C8352
:100780002B838B819C8181309105D1F02B813C8121
:10079000223031052CF48B819C81009761F01EC0C2
:1007A0002B813C812230310581F08B819C8183300B
:1007B000910581F013C0E9E3F0E0808189830EC0E8
:1007C000E6E3F0E08081898309C0E3E3F0E0808123
:1007D000898304C0E0E3F0E08081898389810F9000
:1007E0000F900F900F90CF91DF910895DF93CF93EB
:1007F00000D0CDB7DEB78A8381E00E94A70583E0F1
:100800000E94BF058A810E94BF0580E00E94BF054B
:10081000898380E00E94A70589810F900F90CF9176
:10082000DF910895DF93CF9300D0CDB7DEB78983F2
:100830006A8381E00E94A70582E00E94BF0589814A
:100840000E94BF058A810E94BF0580E00E94A70523
:100850000F900F90CF91DF910895DF93CF9300D049
:100860000F92CDB7DEB789836A834B838AE26981B1
:100870000E94120489E26A810E94120488E26B815C
:100880000E9412040F900F900F90CF91DF91089566
:10089000DF93CF93CDB7DEB781E00E94A70580EC50
:1008A0000E94BF0580E00E94A705CF91DF910895C7
:1008B000DF93CF9300D00F92CDB7DEB789836A83E1
:1008C0004B8381E00E94A70585E00E94BF058981D6
:1008D0000E94BF058A810E94BF058B810E94BF05CF
:1008E00080E00E94A7050F900F900F90CF91DF91AD
:1008F0000895DF93CF930F92CDB7DEB789838981B7
:10090000982F9295990F907E8FE060EE492F0E946C
:1009100058048EE00E94F603982F92959695977052
:1009200089819817B1F70F90CF91DF910895DF93E8
:10093000CF93CDB7DEB70E9428050E9448048FE010
:1009400064E80E9412048EE00E94F6038295869568
:1009500087708430C1F780E861EB45E00E942D0488
:1009600080E00E947904CF91DF9108950F93DF9387
:10097000CF93CDB7DEB729970FB6F894DEBF0FBE81
:10098000CDBF8A834B835C836D837E8338872F83BF
:10099000098781E00E94A70582E00E94BF0580E3ED
:1009A0000E94BF05898582958695869583700E94F1
:1009B000BF058B819C81AD81BE81689412F8B6958C
:1009C000A795979587951694D1F70E94BF058B81BF
:1009D0008295880F807E0E94BF0580E00E94BF053F
:1009E00080E00E94BF0589858F700E94BF05198233
:1009F0000EC08981282F30E08F819885FC01E20F9D
:100A0000F31F80810E94BF0589818F5F898389815F
:100A1000282F30E08985882F90E08F7090702817FC
:100A200039073CF380E00E94A70581E00E94A705FA
:100A300081E80E94BF0580E00E94A70529960FB6B5
:100A4000F894DEBF0FBECDBFCF91DF910F91089517
:100A5000DF93CF930F92CDB7DEB7198281E065E0C7
:100A600041E00E947E0081E066E040E00E947E005E
:100A700081E066E041E00E94BF0181E067E041E083
:100A80000E947E0089818064898389818F7D89832A
:100A900081E064E041E00E947E0081E064E041E0AA
:100AA0000E94BF018981806189838981877F8983D1
:100AB00089818B7F898389818D7F898389818E7FDD
:100AC0008983AEE2B0E0EEE2F0E080818E7F8C932D
:100AD000EDE2F0E0898180830F90CF91DF9108955E
:100AE000DF93CF930F92CDB7DEB7198289818064EF
:100AF000898389818062898381E064E040E00E948B
:100B00007E0081E064E041E00E94BF0189818F7E28
:100B100089838981877F89838981846089838981A9
:100B20008D7F898389818E7F8983AEE2B0E0EEE29A
:100B3000F0E080818E7F8C93898180688983EDE2EB
:100B4000F0E0898180830F90CF91DF910895DF934A
:100B5000CF930F92CDB7DEB789838981813031F48D
:100B600081E064E040E00E94BF0105C081E064E0F4
:100B700041E00E94BF010F90CF91DF910895DF9374
:100B8000CF9300D0CDB7DEB78A831982EFE2F0E0D1
:100B90008A818083EEE2F0E080818823DCF7EFE257
:100BA000F0E08081898389810F900F90CF91DF9150
:100BB0000895DF93CF93CDB7DEB7E9E2F0E083E3AA
:100BC0008083E0E4F0E01082E0E4F0E086E88083F7
:100BD000EAE2F0E088E18083CF91DF910895DF932E
:100BE000CF930F92CDB7DEB78983EBE2F0E080813F
:100BF000882F90E0807290700097B9F3ECE2F0E0FB
:100C0000898180830F90CF91DF910895DF93CF93F7
:100C10000F92CDB7DEB7EBE2F0E080818823DCF7FE
:100C2000ECE2F0E080818983ABE2B0E0EBE2F0E05F
:100C3000808180688C9389810F90CF91DF91089596
:100C40000F93DF93CF930F92CDB7DEB70E94970437
:100C500083E060E040E00E947E0083E061E041E0EC
:100C60000E947E0083E065E041E00E947E000E94D9
:100C7000D90519820E94060689838981843529F461
:100C800083E065E041E00E94BF0180E041EE57E073
:100C900060E070E09E012F5F3F4F01E00E94B604CC
:060CA000E9CFF894FFCF3C
:00000001FF
